:100000000C94441D0D94DC2D0D940D2E0D943E2E5C
:100010000D946F2E0D94A02E0D94D12E0D94022FC1
:100020000D94332F0C94701D0C94701D0C94701D46
:100030000C94701D0C94701D0C94701D0D94F40E96
:100040000C94701D0C94701D0C94701D0C94701DFC
:100050000C94701D0C94701D0C94701D0D94642FE5
:100060000C94701D0C9441200C9481200C94701DF4
:100070000C94701D0C94701D0C94701D0C94701DCC
:100080000C94701D0C94701D0C94701D0C94701DBC
:100090000C94D3200C9413210C94701D0D94F72212
:1000A0000C94701D0D94210F0C94701D0C94701DF8
:1000B0000C94701D0C94701D0D944E0F0C94701DBB
:1000C0000C94701D0C94701D0C94701D0C94701D7C
:1000D0000C94701D0C94701D0C9465210C94A5213A
:1000E0000C94701D602465246A24882488246F245D
:1000F000742488248824882479247E248324B84A7C
:10010000BF4AF64ABD4ABD4AF64AF64AF64ABD4AD1
:10011000BD4ABF4ABF4ABF4ABD4ABD4ABF4ABA4AA2
:100120005B4B4C4B634B634B4C4B514B564B634BB4
:10013000634B5B4B5B4B5B4B634B634B5B4BAD561A
:10014000C656CE56B556BE56D6561C570057F9560B
:10015000F25607570E571557E356EB5634572357A9
:1001600044574A575057645756575C57296B296B69
:10017000296B276B276B296B296B276B276B276BE9
:10018000D46A276B1A6B276B276B246B296B2C7037
:10019000577067706B706F70507D7370507D507DBD
:1001A000507D77707B707F70078CDB8BCA8B1F8CC8
:1001B0001F8C878A248B1F8C1F8C1F8C1F8C698A35
:1001C000698A1F8C1F8C698A409945994A994F9971
:1001D000549959995E99639968996D99729983991F
:1001E00088998D99929997999C99A199A699AB997B
:1001F000B099B599C699CA99CE99D299D699DA99F2
:10020000E099E499EA99F099F699059A099A0D9A74
:10021000119A159A199A1F9A239A299A2F9A359A00
:1002200011E308E31AE323E338E35AE38FE3A5E39A
:100230002AE620E62EE638E648E659E67CE6A1E620
:10024000ADE6DBE6D5E6E2E6EAE6F8E608E718E73B
:100250002FE739E7C51CE71C671CA71C8B1CEF1C8C
:10026000171DD31C931CE91C251DC91CB91CD11CCE
:10027000231DAB1CAB1C911C891C191D151DE51CF5
:100280006D1C9D1C3D1D031D051DBD1C1B1D8F1CD4
:10029000A91C3F1DA31CAF1C651C2F1D8D1C1D1D03
:1002A0008F1C751C091DB71C036EDB363D9A99998E
:1002B000993DABAAAA2A3E000000803F084AD73BDE
:1002C0003BCE016E84BCBFFDC12F3D6C74319ABD25
:1002D00056833DDA3D00C77F11BED9E4BB4C3E9149
:1002E0006BAAAABE000000803F072C7AA5BA6CC595
:1002F00090DA3B9365FC8BBC53F810FD3C5692831F
:100300004DBD879D3AB63DCBC9BF5BBE73DA0FC901
:100310003F05A84CCDB2D44EB93836A9020C50B91D
:10032000918688083CA6AAAA2ABE000000803F0841
:10033000000000BE922449123EABAAAA2ABECDCC30
:10034000CC4C3E00000080BEABAAAAAA3E00000032
:1003500000BF000000803F0000000000084178D38B
:10036000BB4387D1133D190E3CC3BD4282AD2B3E2A
:1003700068EC8276BED98FE1A93E4C80EFFFBE01CA
:10038000C4FF7F3F000000000002005241575F534E
:10039000454E53000000000000006800000000000F
:1003A00002014558545F53544154000000000000BE
:1003B000006A0000000000020252435F4348414EC1
:1003C00000000000000000006C00000000000203BC
:1003D0005241575F4354524C000000000000006E31
:1003E00000000000000204504F534954494F4E0092
:1003F00000000000000070000000000002054558E9
:100400005452413100000000000000000072000062
:10041000000000020645585452413200000000001E
:10042000000000007400000000000207455854520C
:1004300041330000000000000000007600000000D2
:10044000000208504152414D5300000000000000DE
:10045000000078000000000000FF00000000000025
:10046000000000000000000000000000000000028A
:10047000464F524D41545F56455253494F4E00002E
:10048000DA0A000000000153595349445F53575F93
:1004900054595045000001DC0A0000000002535985
:1004A0005349445F544849534D4156000070DD0A9A
:1004B0000000803F0253595349445F4D594743530D
:1004C0000000000071DF0A00007F430153455249DC
:1004D000414C335F4241554400000072E10A000084
:1004E00064420154454C454D5F44454C4159000020
:1004F000000073E20A00000000044B46465F5054BF
:100500004348434F4D50000000C8E30ACDCC4C3E59
:10051000044B46465F524444524D49580000000087
:10052000C9E70A0000003F044B46465F5054434869
:1005300032544852000000CAEB0A00000000044B8D
:1005400046465F5448523250544348000000CBEFB7
:100550000A00000000014D414E55414C5F4C45568C
:10056000454C000000163E0B0000000001535449AA
:10057000434B5F4D4958494E4700000019720B002C
:1005800000803F015255444445525F535445455203
:100590000000001E730B00000000024C414E445F3F
:1005A00050495443485F4344000017470B00000084
:1005B00000044C414E445F464C4152455F414C540F
:1005C000001B490B00004040044C414E445F464C28
:1005D0004152455F534543001C4D0B000000400451
:1005E0005854524B5F4741494E5F534300000096B9
:1005F000F70A0000C842025854524B5F414E474C24
:10060000455F4344000097FB0A00803B4501585476
:10061000524B5F5553455F57494E4400009FFD0ABA
:100620000000803F025854524B5F4D494E5F444991
:10063000535400001DFE0A0000484204414C545F20
:100640004D4958000000000000000083000B00002E
:10065000803F01414C545F4354524C5F414C470032
:1006600000007C040B0000000002414C545F4F4628
:1006700046534554000000000020310B00000000EC
:1006800001434D445F544F54414C000000000000B2
:10069000DD060B0000000001434D445F494E444518
:1006A00058000000000000DE070B000000000257A9
:1006B000505F524144495553000000000000DF08DC
:1006C0000B0000F0410257505F4C4F495445525FB8
:1006D0005241440000E00A0B000070420146454EC2
:1006E00043455F414354494F4E000000E10C0B006D
:1006F0000000000146454E43455F544F54414C00B5
:10070000000000E20D0B000000000146454E43458D
:100710005F4348414E4E454C0000E30E0B00000085
:10072000000246454E43455F4D494E414C54000042
:1007300000E40F0B000000000246454E43455F4DAC
:100740004158414C54000000E5110B00000000022C
:1007500041525350445F4642575F4D494E00007826
:10076000130B0000C0400241525350445F464257B1
:100770005F4D4158000079150B0000B04101464221
:1007800057425F454C45565F52455600007B170B5C
:1007900000000000015448525F4D494E0000000027
:1007A00000000000B5180B00000000015448525F23
:1007B0004D41580000000000000000B6190B000079
:1007C0009642015448525F534C455752415445009C
:1007D0000000BD1A0B00000000015448525F535541
:1007E00050505F4D414E000000BE1B0B000000004A
:1007F000015448525F4641494C5341464500000070
:10080000B71C0B0000803F025448525F46535F56AE
:10081000414C5545000000B81D0B00806D4401544B
:1008200052494D5F5448524F54544C450000B91F33
:100830000B00003442015448524F54544C455F4E13
:1008400055444745001F200B0000803F0146535F81
:1008500053484F52545F4143544E0000BA210B009D
:100860000000000146535F4C4F4E475F4143544EDA
:10087000000000BB220B000000000146535F47430D
:10088000535F454E41424C000000BC230B0000006A
:100890000001464C544D4F44455F43480000000062
:1008A00000D2240B0000004101464C544D4F4445FA
:1008B0003100000000000000D3250B000030410192
:1008C000464C544D4F44453200000000000000D417
:1008D000260B0000304101464C544D4F4445330037
:1008E000000000000000D5270B0000004001464C2E
:1008F000544D4F44453400000000000000D6280B42
:100900000000004001464C544D4F44453500000066
:1009100000000000D7290B0000000001464C544D98
:100920004F44453600000000000000D82A0B0000AC
:100930000000024C494D5F524F4C4C5F4344000055
:100940000000982B0B00A08C45024C494D5F50498C
:100950005443485F4D41580000992D0B0080BB4423
:10096000024C494D5F50495443485F4D494E000089
:100970009A2F0B00401CC5015452494D5F415554FC
:100980004F0000000000000A330B0000000001458A
:100990004C45564F4E5F4D4958494E4700000D3467
:1009A0000B0000000001454C45564F4E5F52455626
:1009B00045525345000E350B0000000001454C45E3
:1009C000564F4E5F4348315F524556000F360B007D
:1009D00000000001454C45564F4E5F4348325F5280
:1009E00045560010370B00000000025359535F4E6C
:1009F000554D5F5245534554530002380B000000DB
:100A000000024C4F475F4249544D41534B00000098
:100A1000000B3A0B0000A743015253545F53574950
:100A20005443485F43480000153C0B0000000001A0
:100A30005253545F4D495353494F4E5F4348001A38
:100A40003D0B00000000035452494D5F415253508A
:100A5000445F434D00009B3F0B000096440453430A
:100A6000414C494E475F53504545440000CCF30A82
:100A700000007041034D494E5F474E445350445F60
:100A8000434D00009E510B00000000025452494D9E
:100A90005F50495443485F434400000C550B00002D
:100AA000000003414C545F484F4C445F52544C008B
:100AB00000009C430B00401C4602414C545F484FD1
:100AC0004C445F464257434D007A570B00000000EC
:100AD000014D41475F454E41424C4500000000003A
:100AE00084590B0000000001464C41505F315F50BB
:100AF0004552434E540000115B0B000000000146BC
:100B00004C41505F315F5350454544000000125C3A
:100B10000B0000000001464C41505F325F504552CF
:100B2000434E540000135D0B0000000001464C4191
:100B3000505F325F5350454544000000145E0B0087
:100B400000000001424154545F4D4F4E49544F52F2
:100B5000000000865A0B0000000004564F4C545F02
:100B600044495649444552000000875F0B0AD76349
:100B70004004414D505F5045525F564F4C54000069
:100B80000088630B5C8FDA4104494E5055545F5620
:100B90004F4C54530000000089670B8FC2954003EF
:100BA000424154545F434150414349545900008AE3
:100BB0006B0B0000DC4401424154545F564F4C54CF
:100BC0005F50494E0000A86F0B0000000001424139
:100BD00054545F435552525F50494E0000A9700B68
:100BE0000000803F01494E564552544544464C54FE
:100BF0005F4348009D710B0000000008474E445FB2
:100C000000000000000000000000008D840D4A2755
:100C100000000843414D5F0000000000000000009C
:100C20000000A0740B8F270000085243315F0000C2
:100C3000000000000000000000AA800BEB3500005F
:100C4000085243325F000000000000000000000076
:100C5000ABA20BEB350000085243335F00000000ED
:100C600000000000000000ACC40BEB35000008528F
:100C700043345F0000000000000000000000ADE60B
:100C80000BEB350000085243355F00000000000008
:100C90000000000000AE080CA635000008524336E4
:100CA0005F0000000000000000000000AF2B0CA659
:100CB000350000085243375F0000000000000000CC
:100CC000000000B04E0CA6350000085243385F000B
:100CD00000000000000000000000B1710CA635000B
:100CE000000848444E4732524C4C5F000000000060
:100CF00000F0EE0C3335000008415253503250548E
:100D000043485F0000000000F30C0D33350000087D
:100D1000454E524759325448525F0000000000F5DA
:100D20002A0D3335000008414C5432505443485F7B
:100D3000000000000000F6480D3335000008574859
:100D400045454C53544545525F00000000F7660D81
:100D50003335000008524C4C325352565F000000AD
:100D600000000000F1940C33350000085054434853
:100D7000325352565F000000000000F2B20C3335CF
:100D80000000085957325352565F0000000000001F
:100D90000000F4D00C3335000008434F4D50415350
:100DA000535F00000000000000851A0EDE270000DF
:100DB000085352305F0000000000000000000000F7
:100DC0006E430989030000085352335F000000009E
:100DD000000000000000006FC709890300000849F7
:100DE0004E535F0000000000000000000000185A91
:100DF00007E232000008494D555F00000000000086
:100E0000000000000082BA079D32000008414852ED
:100E1000535F000000000000000000008CF5071D7B
:100E20002600000841525350445F000000000000BB
:100E30000000008E570ABE260000084D4E545F0089
:100E400000000000000000000000A16F0A8D3300C8
:100E50000000000000000000000000000000000092
:100E600000000000000000004C6F670064756D70AA
:100E700000000000000000000000994165726173ED
:100E800065000000000000000000C163656E616243
:100E90006C650000000000000000FA3964697361AD
:100EA000626C6500000000000000FA39706C616E31
:100EB0006E657200676373000000000000000000B0
:100EC00000007A7D736574757000726573657400D7
:100ED0000000000000000000C339726164696F0007
:100EE0000000000000000000945D6D6F64657300F9
:100EF0000000000000000000195D6C6576656C0064
:100F00000000000000000000776F636F6D70617378
:100F100073000000000000004F396465636C696E67
:100F20006174696F6E0000003A39626174746572B1
:100F30007900000000000000F73873686F77000048
:100F40000000000000000000CB386572617365008E
:100F50000000000000000000A63841726475506C6B
:100F6000616E652056322E3636006C6F6773000056
:100F700000000000000000006C387365747570009C
:100F80000000000000000000543874657374000015
:100F900000000000000000003C3868656C70000034
:100FA00000000000000000003A25706C616E6E6564
:100FB0007200000000000000243874657374007033
:100FC000776D0000000000000000000000A85C72C7
:100FD0006164696F000000000000000000245C7084
:100FE00061737374687275000000000000DF37667B
:100FF00061696C736166650000000000003A5B6225
:1010000061747465727900000000000000465A7235
:10101000656C6179000000000000000000803377FB
:101020006179706F696E7473000000000029327876
:1010300062656500000000000000000000442F65AC
:101040006564756D7000000000000000003B316DAC
:101050006F646573776974636800000000B730617E
:101060006463000000000000000000000001306721
:1010700070730000000000000000000000762F7276
:1010800061776770730000000000000000052F69A1
:101090006D750000000000000000000000152861D0
:1010A000697273706565640000000000000B636185
:1010B00069727072657373757265000000526263C5
:1010C0006F6D7061737300000000000000072A6CF0
:1010D0006F6767696E6700000000000000792746AF
:1010E0006F726D61742076657273696F6E3A202538
:1010F0006C782020457870656374656420666F7233
:101100006D61742076657273696F6E3A20256C7814
:101110000A004E756D50616765733A202575202071
:101120005061676553697A653A2025750A004D61FB
:101130006E7566616374757265723A203078253019
:1011400032782020204465766963653A203078251E
:101150003034780A004552523A204E6F2064617450
:1011600061666C61736820696E7365727465640092
:1011700054657374696E672064617461666C617331
:1011800068206C6F6767696E6700736176696E6768
:10119000206F66667365747300636F6D706173733F
:1011A000206E6F74206865616C74687900486561B1
:1011B00064696E673A20256C642C2058595A3A208D
:1011C00025642C2025642C2025642C0958595A6F3D
:1011D00066663A2025362E32662C2025362E32665B
:1011E0002C2025362E32660A00436F6D70617373B2
:1011F00020696E697469616C69736174696F6E20CE
:101200006661696C65642100436F6D706173733A48
:10121000200061626C65640A0064697300656E0099
:101220004D6167206F6666736574733A2025342EAE
:1012300034662C2025342E34662C2025342E34663A
:101240000A004D6167204465636C696E6174696F63
:101250006E3A2025342E34660A003F3F0048494C40
:1012600000484D433538343300484D433538383322
:101270004C00436F6D706173733A20002D00486914
:101280007420456E74657220746F20657869742EC1
:101290000A0A00416C743A2025302E32666D2C20EB
:1012A0005261773A20256C642054656D70657261D7
:1012B000747572653A20252E31660A006E6F7420AF
:1012C0006865616C74687900556E63616C696272FF
:1012D000617465642072656C61746976652061690A
:1012E0007270726573737572650A006261726F6DF8
:1012F000657465722063616C6962726174696F6E96
:1013000020636F6D706C65746500496E6974696106
:101310006C6973696E672041504D2E2E2E00252E6C
:101320003166206D2F730A006169727370656564A0
:101330003A200061697273706565643A20006169E2
:101340007273706565645F63683A20252E31660AA2
:10135000007A65726F2061697273706565642063DD
:10136000616C6962726174656400723A253464204C
:1013700020703A2534642020793A25336420206790
:101380003D2825352E31662025352E316620253520
:101390002E3166292020613D2825352E31662025F5
:1013A000352E31662025352E3166290A002E004C57
:1013B00061743A20256C642C204C6F6E20256C647F
:1013C0002C20416C743A20256C646D2C20237361B1
:1013D00074733A2025640A00252E316609004144C1
:1013E000430A00506F736974696F6E2025640A00A8
:1013F000436F6E74726F6C2043482000202530329A
:101400007800253034783A00426567696E2058428A
:10141000656520582D4354552052616E67652061E3
:101420006E64205253534920546573743A0A004C39
:101430006F69746572207261646975733A202564FE
:101440000A0A00486974207261646975733A20253C
:10145000640A00256420776179706F696E74730A7D
:1014600000486F6C6420616C746974756465206FEA
:10147000662025646D0A00486F6C64206375727283
:10148000656E7420616C7469747564650A00636FBD
:101490006D6D616E6420233A2025642069643A25CD
:1014A00064206F7074696F6E733A25642070313AEE
:1014B00025642070323A256C642070333A256C64C0
:1014C0002070343A256C64200A0052656C617920E2
:1014D0006F66660A0052656C6179206F6E0A004E75
:1014E0006F7420656E61626C65640A00563A20254F
:1014F000342E34662C20413A2025342E34662C209C
:101500006D41683A2025342E34660A00563A20256B
:10151000342E34660A004D5347204653204F46462A
:10152000202575004D5347204653204F4E202575EA
:10153000004C4F5320636175736564206E6F2063A8
:1015400068616E676520696E2041504D2E0A005417
:1015500048524F54544C45204641494C534146450E
:10156000204143544956415445443A2025642C2097
:1015700000434F4E54524F4C204D4F44452043485A
:10158000414E4745443A20005448524F54544C452C
:10159000204348414E474544202564200A00556EAB
:1015A000706C756720626174746572792C20746840
:1015B000726F74746C6520696E206E6575747261EB
:1015C0006C2C207475726E206F666620726164697F
:1015D0006F2E0A002D2D2D004C6F6974657200521C
:1015E000544C004155544F004642575F420046421A
:1015F000575F410053746162696C697A65004369A1
:1016000072636C65004D616E75616C0043483A0011
:101610002C00494E20313A20256409323A202564B5
:1016200009333A20256409343A20256409353A20E3
:10163000256409363A20256409373A20256409389B
:101640003A2025640A00494E3A09313A20256409B6
:10165000323A20256409333A20256409343A20259A
:101660006409353A20256409363A20256409373A59
:1016700020256409383A2025640A00506C616E6E9A
:101680006572204D6F64650A0A54686973206D6F36
:101690006465206973206E6F7420696E74656E6472
:1016A000656420666F72206D616E75616C20757364
:1016B000650A0A00436F6D6D616E64733A0A2020FB
:1016C0006C6F677320202020202020206C6F672003
:1016D000726561646261636B2F7365747570206DF0
:1016E0006F64650A202073657475702020202020A7
:1016F00020207365747570206D6F64650A202074F6
:1017000065737420202020202020207465737420AD
:101710006D6F64650A0A4D6F766520746865207385
:101720006C6964652073776974636820616E6420F6
:10173000726573657420746F20464C592E0A0A0036
:1017400054657374204D6F64650A0A00536574759F
:1017500070204D6F64650A0A494D504F5254414EF6
:10176000543A20696620796F752068617665206E2D
:101770006F742070726576696F75736C792073650C
:101780007420746869732073797374656D20757043
:101790002C20757365207468650A277265736574FB
:1017A0002720636F6D6D616E6420746F20696E69B0
:1017B0007469616C697A652074686520454550528A
:1017C0004F4D20746F2073656E7369626C65206481
:1017D000656661756C742076616C7565730A616EFF
:1017E00064207468656E207468652027726164697E
:1017F0006F2720636F6D6D616E6420746F20636F5F
:101800006E66696775726520666F7220796F757292
:1018100020726164696F2E0A0A000A54797065208B
:1018200027592720616E642068697420456E7465AD
:101830007220746F20657261736520616C6C207713
:101840006179706F696E7420616E6420706172617D
:101850006D6574657220646174612C20616E7920FD
:101860006F74686572206B657920746F2061626F98
:1018700072743A2000646F6E650A000A45726173E3
:10188000696E6720454550524F4D0A0052617720DE
:1018900056616C7565730A00526164696F0A004392
:1018A00048383A202564207C202564207C2025644B
:1018B0000A004348373A202564207C202564207C98
:1018C0002025640A004348363A202564207C2025E0
:1018D00064207C2025640A004348353A2025642092
:1018E0007C202564207C2025640A004348343A206B
:1018F0002564207C202564207C2025640A00434840
:10190000333A202564207C202564207C2025640A2D
:10191000004348323A202564207C202564207C2026
:1019200025640A004348313A202564207C20256440
:10193000207C2025640A004D6F6E69746F72696E99
:101940006720766F6C747320616E642063757272A9
:10195000656E74004D6F6E69746F72696E67206298
:1019600061747420766F6C74730042617474206DBE
:101970006F6E69746F72696E672064697361626CFF
:1019800065640042617474204D6F696E746F720AF1
:10199000006E617620706974636820616C743A0A25
:1019A00000656E6572677279207468726F74746C0A
:1019B000653A0A006E617620706974636820616917
:1019C0007273706565643A0A006E617620726F6C9E
:1019D0006C3A0A00736572766F2072756464657282
:1019E0003A0A00736572766F2070697463683A0A08
:1019F00000736572766F20726F6C6C3A0A004761F3
:101A0000696E730A00503A2025342E33662C204923
:101A10003A25342E33662C20443A25342E33662C56
:101A200020494D41583A256C640A005854524143AC
:101A30004B3A2025342E32660A58545241434B20EB
:101A4000616E676C653A2025640A0043726F737398
:101A5000747261636B0A006D696E3A2025640A6DC9
:101A600061783A2025640A6372756973653A2025A6
:101A7000640A6661696C736166655F656E61626C5C
:101A800065643A2025640A6661696C736166655F06
:101A900076616C75653A2025640A005468726F742B
:101AA000746C650A00466C69676874206D6F6465C4
:101AB000730A00506F732025643A2000494D550A7F
:101AC000004779726F206F6666736574733A2025DC
:101AD000342E32662C2025342E32662C2025342ECE
:101AE00032660A00416363656C206F6666736574D5
:101AF000733A2025342E32662C2025342E32662C63
:101B00002025342E32660A000A4F7074696F6E7396
:101B10003A20332D34000A4F7074696F6E733A5B4C
:101B20006F6E2C6F66662C72657365745D0A007249
:101B300065736574006F666600436F6D70617373E3
:101B400020696E697469616C69736174696F6E2074
:101B50006661696C656421006F6E004E4F2061699B
:101B600072737065656400426567696E6E696E6761
:101B700020494D552063616C6962726174696F6EB2
:101B80003B20646F206E6F74206D6F766520706CE3
:101B9000616E65005761726D696E672075702041D6
:101BA00044432E2E2E0044656D6F20536572766F70
:101BB0007321000A4D6F766520524320746F67676A
:101BC0006C652073776974636820746F2065616346
:101BD0006820706F736974696F6E20746F2065641C
:101BE00069742C206D6F76652061696C65726F6E0B
:101BF00020737469636B20746F2073656C65637404
:101C0000206D6F6465732E000A53617665642053FE
:101C1000657474696E67730A0A000A4D6F766520F1
:101C2000616C6C20636F6E74726F6C7320746F20C4
:101C3000656163682065787472656D652E204869FA
:101C40007420456E74657220746F20736176653AF6
:101C5000200A000A4E6F20726164696F3B2043685E
:101C600065636B20636F6E6E6563746F72732E00B5
:101C70000A0A526164696F2053657475703A0A00EC
:101C80000A464143544F525920524553455420630C
:101C90006F6D706C657465202D20706C6561736567
:101CA0002072657365742041504D20746F20636FFE
:101CB0006E74696E7565000A54797065202759271E
:101CC00020616E642068697420456E7465722074AA
:101CD0006F20706572666F726D20666163746F72DB
:101CE000792072657365742C20616E79206F746839
:101CF0006572206B657920746F2061626F72743A2F
:101D00002000656E61626C650043555200434D448E
:101D100000524157004D4F4445004E54554E00432C
:101D200054554E00504D00475053004154544954AF
:101D30005544455F4D45440041545449545544452C
:101D40005F4641535400616C6C006D697373696E3A
:101D500067206C6F6720747970650A004C6F67208C
:101D6000657261736520636F6D706C6574650045A5
:101D7000726173696E67206C6F677300446F6E6584
:101D80000A0044756D70696E67204C6F672025648A
:101D90002C202020207374617274207067202564C9
:101DA0002C202020656E642070672025640A006264
:101DB0006164206C6F67206E756D6265720A0064E5
:101DC000756D70696E6720616C6C0A0025640A008D
:101DD00025642C0900444620706167652C206C6FD7
:101DE000672066696C6520232C206C6F672070610A
:101DF00067653A2025642C09004E756D6265722076
:101E00006F66207061636B65747320726561643AFC
:101E10002025640A000A41726475506C616E652069
:101E200056322E36360A467265652052414D3A20AA
:101E300025750A004572726F722052656164696E81
:101E40006720454E445F425954453A2025640A00B4
:101E50004572726F722052656164696E67205061CD
:101E6000636B65743A2025640A004154543A202576
:101E7000642C2025642C2025750A004D4F443A001F
:101E80004354554E3A004E54554E3A2025342E3484
:101E9000662C2025642C2025342E34662C202534F5
:101EA0002E34662C2025342E34662C2025342E34F6
:101EB000662C2025342E34662C0A00504D3A0052F0
:101EC00041573A00434D443A00435552523A202577
:101ED000642C2025342E34662C2025342E34662C98
:101EE0002025640A0020256420636F6D6D616E6497
:101EF0007320696E206D656D6F72790A00554E4BC7
:101F00004E4F574E2053544152545550202D2000CF
:101F100047524F554E44205354415254202D2000D7
:101F2000414952205354415254202D2000475053D0
:101F30003A20256C642C2025642C2025642C202537
:101F4000342E37662C2025342E37662C2025642C21
:101F50002025342E34662C2025342E34662C202562
:101F6000342E34662C2025342E34660A004C6F67DC
:101F70002025642C20202020737461727420256435
:101F80002C202020656E642025640A000A25642028
:101F90006C6F67730A000A4E6F206C6F67730A0AD2
:101FA000004355520020255300434D440020255343
:101FB0000052415700202553004D4F444500202535
:101FC00053004E54554E00202553004354554E00A7
:101FD00020255300504D002025530047505300202A
:101FE00025530041545449545544455F4D454400E0
:101FF0002025530041545449545544455F464153AC
:102000005400202553006E6F6E65006C6F6773205F
:10201000656E61626C65643A20005265636569763D
:1020200065642052657175657374202D206A756D25
:102030007020746F20636F6D6D616E64202325695D
:102040000043616E6E6F74206368616E6765207413
:102050006F206E6F6E2D4E617620636D6420257546
:1020600000526563656976656420526571756573B4
:1020700074202D207265736574206D697373696FA8
:102080006E00283229204E6F6E2D4E617620636FD0
:102090006D6D616E6420494420757064617465647F
:1020A00020746F20232569206964783D2575004ED2
:1020B0006F6E2D4E617620636F6D6D616E64204989
:1020C00044207570646174656420746F20232569F1
:1020D000206964783D2575006F7574206F662063F4
:1020E0006F6D6D616E647321004E617620636F6D5C
:1020F0006D616E6420696E646578207570646174CA
:10210000656420746F202325690052657475726EB2
:10211000696E6720746F20486F6D65004578656350
:102120007574696E67206E617620636F6D6D616E88
:1021300064204944202325690052657365747469DD
:102140006E6720707265765F5750004578656375DD
:1021500074696E6720636F6D6D616E642049442001
:1021600023256900444F5F5345545F524F49206E09
:102170006F7420737570706F727465640045786554
:10218000637574696E6720636F6D6D616E6420495D
:1021900044202325690073657474696E6720636F3A
:1021A0006D6D616E6420696E6465783A2025690002
:1021B0004A756D7020746F2057502025752E204A67
:1021C000756D7073206C6566743A20256400536BDE
:1021D000697070696E6720696E76616C6964206AE7
:1021E000756D7020746F202569004A756D707320BD
:1021F0006C6566743A2030202D20736B69707069AD
:102200006E6700536574207468726F74746C652017
:102210002575005365742067726F756E6473706501
:10222000656420257500536574206169727370655B
:102230006564202575206D2F730067707320616CB5
:10224000743A20256C7500696E697420686F6D653D
:10225000006261642066656E636520706F696E74EC
:10226000006261642066656E636520706F696E74DC
:102270000066656E63696E67206D757374206265B4
:102280002064697361626C656400666C6967687478
:1022900020706C616E2072656365697665640066A6
:1022A0006C6967687420706C616E2075706461740D
:1022B000652072656A656374656400556E6B6E6F48
:1022C000776E20706172616D65746572202F257361
:1022D00000556E6B6E6F776E20706172616D657404
:1022E000657220696E64657820256400636F6D6D8A
:1022F000616E642072656365697665643A20006684
:102300006C69676874206D6F6465203D20257500D9
:102310004661696C73616665202D2053686F727425
:10232000206576656E74206F6E2C20004661696CA6
:1023300073616665202D2053686F72742065766521
:102340006E74206F66660067656F2D66656E6365E7
:10235000207472696767657265640067656F2D66D2
:10236000656E6365204F4B0067656F2D66656E6314
:1023700065207365747570206572726F7200676591
:102380006F2D66656E6365206C6F616465640057D0
:1023900050206572726F72202D2064697374616EB3
:1023A0006365203C2030007665726966795F6E61F6
:1023B000763A20496E76616C6964206F72206E6F88
:1023C0002063757272656E74204E617620636D6451
:1023D00000486F6C64696E6720636F757273652067
:1023E000256C64004C616E6420436F6D706C657485
:1023F00065202D20486F6C6420636F7572736520B3
:10240000256C640050617373656420576179706F47
:10241000696E742023256920646973742025756DA5
:10242000004D69737365642057500052656163689D
:10243000656420576179706F696E74202325692067
:10244000646973742025756D007665726966795FBD
:102450006E61763A204C4F49544552206F72626942
:10246000747320636F6D706C657465007665726956
:1024700066795F6E61763A204C4F4954455220741C
:10248000696D6520636F6D706C6574650052656180
:102490006368656420686F6D65007665726966794A
:1024A0005F636F6E6469746F6E3A20496E76616C1B
:1024B0006964206F72206E6F2063757272656E742E
:1024C00020436F6E646974696F6E20636D6400668B
:1024D0006C69676874206D6F6465203D2025750008
:1024E0004661696C73616665202D204C6F6E6720B4
:1024F0006576656E74206F6E2C20000A50726573CD
:102500007320454E54455220332074696D65732005
:10251000746F20737461727420696E746572616384
:10252000746976652073657475700A0A00436F6D6F
:102530007061737320696E697469616C6973617429
:10254000696F6E206661696C656421004552415374
:10255000494E47204C4F4753004E6F2064617461D1
:10256000666C617368206361726420696E73657262
:10257000746564000A0A496E69742041726475507A
:102580006C616E652056322E36360A0A46726565D3
:102590002052414D3A2025750A006C6F61645F61DD
:1025A0006C6C20746F6F6B20256C7575730A0064FA
:1025B0006F6E652E004669726D7761726520636883
:1025C000616E67653A2065726173696E6720454583
:1025D00050524F4D2E2E2E0A00496E76616C696462
:1025E0002053455249414C335F42415544000A0A49
:1025F00020526561647920746F20464C592E003C4E
:10260000737461727475705F67726F756E643E206B
:1026100047524F554E4420535441525400040247F0
:1026200050535F4741494E00000000000000240065
:102630000000803F01034750535F555345000000A1
:10264000000000000028000000803F0404594157AA
:102650005F50000000000000000000001C00CDCC16
:10266000CC3E040552505F50000000000000000006
:102670000000002000CDCCCC3E010657494E445FFF
:102680004D4158000000000000002A00000000003A
:1026900001074241524F5F555345000000000000C2
:1026A0000029000000000000FF0000000000000002
:1026B0000000000000000000000000000000010019
:1026C000454E41424C450000000000000000000B58
:1026D000000000803F01015553450000000000004C
:1026E0000000000000000A000000000004024F4645
:1026F00046534554000000000000000000020000A6
:102700000000000403524154494F00000000000043
:10271000000000000600492EFF3F00FF00000000FF
:1027200000000000000000000000000000000000A9
:10273000004D41585F50494E5F534F5552434553EA
:1027400020524541434845440A0004024142535F38
:1027500050524553530000000000000C00000000E0
:1027600000040354454D500000000000000000002C
:10277000000008000000000000FF00000000000052
:102780000000000000000000000000000000000148
:102790000054524947475F5459504500000000001B
:1027A0000B000000000000FF00000000000000001F
:1027B0000000000000000000000000000025733A47
:1027C0002025660A0025733A20256C640A002573CB
:1027D0003A2025640A0025733A2025640A00050181
:1027E0004F465300000000000000000000000011F0
:1027F0000000000000040244454300000000000007
:102800000000000000001D000000000001034C4516
:1028100041524E00000000000000000000210000B6
:1028200000803F01045553450000000000000000F7
:102830000000000022000000803F01054155544F78
:102840004445430000000000000000230000008019
:102850003F00FF000000000000000000000000003A
:10286000000000000000000096918C87827D787344
:102870006E69645F5A55504B46413C37322D2823D0
:102880001E19140F0A050004090E13181D22272C07
:1028900031363B40454A4F54595E63686D72777CD0
:1028A00081868B90959A9FA4A9AEB3AFAAA5A09B51
:1028B000968F89837E78736E69645F5A55504B4753
:1028C000423E3935302C27231F1B16120E090501F5
:1028D00003070B1014191D22262B2F34393D4247B4
:1028E0004C51565B60656B70757B80868C92979DB2
:1028F000A3A9AFB2ACA6A09A948F827C76706B65C8
:10290000605C57524E4A46413D3936322E2A2622C5
:102910001F1B1713100C08040102060A0E12161AC8
:102920001E22262B2F33383D41464B4F54595E64AF
:10293000696F747A80878D949BA2AAB1AEA69F9787
:102940009089826F68635E5955514D4946423F3CBC
:102950003835322E2B2824211E1A1714100D0A0682
:1029600003000306090D1014181C2024282C3034F1
:10297000393D41464A4F54585D62676D737980878F
:102980008F98A2ACB0A59A90867D766F55514D4A2E
:102990004744413F3C3A383533312E2B29262320FA
:1029A0001D1A1713100D0A070401010306090D1063
:1029B00013171A1E22262A2E32363A3E42464A4E15
:1029C00053575B5F64696E757C85909FB2A08D7D67
:1029D0007067605A553E3C3A393736343332302FBF
:1029E0002E2C2A292724221F1C191613100D0A0722
:1029F0000402000305080A0D1013161A1D212529CB
:102A00002D3135383C4043464A4D505356595B5E54
:102A10006165696F826D544D4A474442403E2E2E97
:102A20002D2C2C2B2A2A2929282726252423211F2F
:102A30001C1A1714100D0A07040101030507090CDD
:102A40000E1013161A1D2124282C3033373A3D401E
:102A5000424447484A4A4B4A48443D3019021621ED
:102A6000282B2D2E2F2E2E06090C0F121517191B91
:102A70001C1B1811040E2231383C3C3C3A383532CC
:102A80002F2B2824201C1915110D09050102060AF7
:102A90000E1115181C1F222527292A2B2B29262128
:102AA0001911080004080A0A0A08070402000306AC
:102AB00016181A1C1E20211F1712516063625F5DD9
:102AC0005956524E4A46423E3935312C2824201B55
:102AD00017130E0A060102060A0F13171B1F2326DF
:102AE0002A2D313437393C3D3F3F3E3D39352F2883
:102AF000211C17151313131416A8ADB2B0ABA6A161
:102B00009C97928D88837E79746F6A65605B56515D
:102B10004C47423D38332E29241F1A15100B06014D
:102B200003080D12171C21262B30353A3F44494E1D
:102B300053585D62676C71767B80858A8F94999E0D
:102B4000A3A800000001FFFFE0000000000000015A
:102B5000FFFFF000000000000001FFFFF800000090
:102B600000000001FFFFFE00000000000003FFFF67
:102B7000FF00000000000003FFFFFFF00000000066
:102B8000000FFFFFFFFE00000003FFFFFC00000737
:102B9000FC00007FFFFFFC000000000000001FFFA2
:102BA000FE0000000000241E191512100E0C0B0A66
:102BB00009090908080807060605040404030404B3
:102BC000040000000000000000000027262123254B
:102BD0002325242722292A2A1C27282B333227257C
:102BE000222C3331303700000000000000000000CC
:102BF000801140114071327334333213121132118B
:102C000012933413145352310021030406080B2D80
:102C10000A090705040241C011C05112535473122E
:102C20001112515273147332310021020405060748
:102C300008090806070624030201020001200120FA
:102C400011C00111003132137413143312F112D375
:102C500012510001022325060746442342210001A8
:102C6000E0A0313213B433111211001120110052BF
:102C7000331213321120012224850423040203425B
:102C8000410001E0A05112141315131534133251F1
:102C900040012011521332310001222304050405A2
:102CA0000423010382612001E011801132135415C5
:102CB0001433323140210201003172314102234488
:102CC0002302012201220102614001A01180511260
:102CD0001413341514331231400102010302012090
:102CE00052111220212243042241022102A100019B
:102CF000E0201140515374133211402102030203AA
:102D0000020100111211320011412223222100413F
:102D100002A180016011601100113233741312118D
:102D2000400162030203213112111211400102011C
:102D300002030201000100E121E0A0112012117341
:102D4000343331200162036240121112110011016B
:102D500000010201220001200100E1C001001180F8
:102D6000110012111312141334522001E202212017
:102D70003112110011000100210201000140210067
:102D800002410001E06011401112111312141314DA
:102D9000133211002122034201022100010011001F
:102DA0001211001120010041600100C10001401119
:102DB000200160114051121312131433123100011B
:102DC00042032201022100014011003100110001E3
:102DD00000010001A0E10001A00180112031529307
:102DE00012110021C22100214031001120110001E7
:102DF0000001E0E16001E011001172731231002165
:102E00004203010201022021401100112011600142
:102E1000401160010001022102000120014001A0D7
:102E2000513213125332112001020182210021007C
:102E30000100110031E000110011602100010201C8
:102E40000201010021200100016011001152131242
:102E500014135211004182010200010021401100AF
:102E6000110011A011003100112081220101000286
:102E700001002100016011005213121314133231AA
:102E80000100020122014201002100010001112084
:102E900011001120114071001140010221020102B4
:102EA0000100210221000100010011001211123362
:102EB00012341332112001020142012201004100AB
:102EC0000160112011001100110051123120610226
:102ED0000122020002010281201100121173341339
:102EE00032110041020182010061000180110011D4
:102EF00000913231402142010202006261401152D0
:102F000014135433310041820122000102004100B8
:102F100001609112115251200122010301020200AD
:102F20008261005133541514333100210201220310
:102F3000424102A180319213323100412203020149
:102F400003002203220102014011123395333101A3
:102F5000002201034203222122010261000111002B
:102F60001152131253123100412203220300230293
:102F700003020102212032131416151716153311FE
:102F800020016203020302032201A24140111253F5
:102F9000141314133211010002010203020302028E
:102FA00000022302032221203214163718171513AA
:102FB0001211002122030243024301030203822172
:102FC000201112131415341514321100016223025A
:102FD000030043020342012012131518193A171572
:102FE000131100210203026304E30203020302013E
:102FF0000240121314151715163412202122430211
:103000000300A3220100111215181C1E1D1916130E
:1030100011000201030203042304032403044304F4
:103020002304030203422011121415171836151336
:103030003121020302230203245047434D442C3123
:10304000362C302C302C302C302C302A36410D0AC6
:103050000024505352463130302C302C3338343029
:10306000302C382C312C302A334300204E4D454132
:10307000200020534952462000204D544B20002070
:103080004D544B313620002075626C6F7820000063
:1030900096000000E1000080250000C01200004FF3
:1030A0004B0024505352463130332C302C302C31CD
:1030B0002C312A32350D0A24505352463130332CEC
:1030C000312C302C302C312A32350D0A24505352F9
:1030D000463130332C322C302C302C312A32360D04
:1030E0000A24505352463130332C332C302C302CA0
:1030F000312A32370D0A24505352463130332C34A2
:103100002C302C312C312A32300D0A2450535246A7
:103110003130332C352C302C312C312A32300D0A01
:1031200024505352463130332C362C302C302C3135
:103130002A32320D0A24505352463130332C382C67
:10314000302C302C312A32430D0A24505352463150
:1031500035312C312A33460D0A2450535246313032
:10316000362C32312A30460D0A0024504D544B3350
:1031700031342C302C302C312C312C302C302C3064
:103180002C302C302C302C302C302C302C302C305F
:103190002C302C302A32380D0A24504D544B333306
:1031A000302C302A32450D0A24504D544B333133E4
:1031B0002C312A32450D0A24504D544B3330312CDA
:1031C000322A32450D0A0024505542582C34302CF6
:1031D0006767612C302C312C302C302C302C302A6D
:1031E00037420D0A24505542582C34302C767467DF
:1031F0002C302C312C302C302C302C302A37460DF2
:103200000A24505542582C34302C726D632C302CCB
:10321000302C302C302C302C302A36370D0A004719
:1032200050524D430047504747410047505654477E
:103230000024505542582C34312C312C303030334E
:103240002C303030312C33383430302C302A323678
:103250000AB56206010300010601124F0020002A90
:1032600000496E697420416363656C000A67797276
:103270006F20646964206E6F7420636F6E76657270
:1032800067653A20646966663D2566206470730A46
:10329000002A00496E6974204779726F0006004366
:1032A000414C00000000000000000000000003008E
:1032B00000000000020150524F445543545F4944FE
:1032C000000000000037000000000000FF000000C8
:1032D00000000000000000000000000000000000EE
:1032E000000002005848000000000000000000003C
:1032F000000000020000101A450201584C000000B6
:103300000000000000000000000004000020CA448B
:103310000202594800000000000000000000000008
:1033200000060000101A450203594C00000000007E
:10333000000000000000000008000020CA44020451
:103340005A48000000000000000000000000000AD1
:103350000000101A4502055A4C0000000000000051
:103360000000000000000C000020CA4400FF000024
:10337000000000000000000000000000000000004D
:10338000000000657869740068656C700001004D8C
:103390004F4445000000000000000000000036001F
:1033A0000000000005015245545241435400000002
:1033B000000000000047000000000005024E4555D7
:1033C0005452414C00000000000000005300000077
:1033D00000000503434F4E54524F4C0000000000C4
:1033E0000000005F00000000000104535441425FF0
:1033F000524F4C4C00000000000033000000000061
:103400000105535441425F54494C540000000000F0
:10341000003400000000000106535441425F504157
:103420004E00000000000000350000000000010711
:1034300052435F494E5F524F4C4C00000000003732
:1034400000000000000208414E474D494E5F524FB8
:103450004C00000000003A0000A08CC50209414E5B
:10346000474D41585F524F4C00000000003C0000A7
:10347000A08C45010A52435F494E5F54494C5400A9
:1034800000000000380000000000020B414E474DD4
:10349000494E5F54494C00000000003E0000A08CE3
:1034A000C5020C414E474D41585F54494C00000045
:1034B0000000400000A08C45010D52435F494E5F63
:1034C00050414E00000000000039000000000002E2
:1034D0000E414E474D494E5F50414E0000000000E6
:1034E000420000A08CC5020F414E474D41585F502D
:1034F000414E0000000000440000A08C4501104A2D
:10350000535449434B5F53504400000000004600B1
:103510000000000000FF00000000000000000000AC
:1035200000000000000000000000006E616E0069F5
:103530006E66000400500000000000000000000063
:10354000000000000000000000000401490000002D
:103550000000000000000000000000040000000067
:103560000004024400000000000000000000000011
:1035700000000800000000000203494D415800000F
:103580000000000000000000000C0000000000002F
:10359000FF0000000000000000000000000000002C
:1035A0000000000000000800000000000000000013
:1035B000000000000000000000EB350000010146A3
:1035C000554E4354494F4E000000000000002200B9
:1035D0000000000000FF00000000000000000000EC
:1035E000000000000000000000000002004D494EF5
:1035F0000000000000000000000000000A00008041
:10360000894402015452494D0000000000000000AE
:103610000000000C000080BB4402024D4158000035
:10362000000000000000000000000E000080ED44DB
:103630000103524556000000000000000000000099
:103640000015000000803F0204445A000000000002
:10365000000000000000000016000000000000FF55
:10366000000000000000000000000000000000005A
:10367000000000000000407A10F35A00A0724E18BB
:10368000090010A5D4E80000E87648170000E40B14
:1036900054020000CA9A3B000000E1F505000080DA
:1036A000969800000040420F000000A08601000034
:1036B00000102700000000E8030000000064000084
:1036C0000000000A00000000000100000000002CC3
:1036D00076D888DC674F0823DFC1DFAE59E1B1B788
:1036E00096E5E3E453C63AE651997696E8E6C28455
:1036F00026EB898C9B62ED407C6FFCEFBC9C9F406D
:10370000F2BAA56FA5F490055A2AF75C936B6CF991
:10371000676DC11BFCE0E40D47FEF520E6B500D067
:10372000ED902E0300943577050080841E0800007C
:10373000204E0A000000C80C333333330F986E124A
:10374000831141EF8D2114893BE65516CFFEE6DB50
:1037500018D1844B381BF77C1D901DA4BBE424209A
:103760003284725E228100C9F124ECA1E53D27007C
:10377000002100240027002A002D00300033000122
:10378000010000040107010A0100002200250028B1
:10379000002B002E0031003400020100000501085A
:1037A000010B01000020002300260029002C002F1F
:1037B00000320000010000030106010901050505B2
:1037C00005070508080808020202020A0A08080498
:1037D00004040401010101010101010303030303C6
:1037E000030303040707070C0C0C0C0C0C0C0C0255
:1037F00002020206060606060606060B0B0B0B0B5C
:103800000B0B0B0102102020080810204010204054
:103810008002010201080402010102040810204094
:1038200080804020100804020180040201804020B2
:1038300010080402010804020101020408102040DB
:103840008001020408102040800000090A02080BD1
:103850000C0D07060304010000000000000000003A
:103860000000000000000000000000000000000058
:10387000000000000011100F000000000000000018
:1038800000000000000000000000000000000049EF
:103890004E46494E4954594E414ECDCCCC3D0AD7A7
:1038A000233C17B7D13877CC2B329595E6241FB13E
:1038B0004F0A000020410000C84200401C4620BCC6
:1038C000BE4CCA1B0E5AAEC59D740D94CF300D94DC
:1038D00062000D9452050D94EB170D9465210D9423
:1038E00032000D948C170D949C140D94E3300D94BC
:1038F000CF270D94B41D0D9479100D94120E0D94D4
:10390000492A0D94E02F0D94BA1D0D940B0E0D94C1
:103910002B160D9405210D9493000D94D9300D9420
:10392000F2300D9498200D94F2000D94601F0D94C8
:103930002A250D9469190D94A21D0D94A2210D94B0
:10394000611D0D945B1D0D94C7300D94901F0D9457
:1039500085000D94BD300D9468200D94BC170D9416
:10396000CB300D9455110D9459080D941B100D94E6
:10397000ED300D943F010D9432050D94AC300D9453
:103980002A230D94AE180D941D0E0D943D000D9438
:10399000B0020D9435010D94B1010D9477290D9469
:1039A000E82C0D9462010D94ED000D94E80D0D943A
:1039B000B61F0D9460280D94F8070D94B4180D945B
:1039C00040180D940F0E0D94D1160D9439210D94BD
:1039D00050000D9411010D945C2B0D9411100D9459
:1039E000B2000D94B32A0D94CF280D94A80F0D9416
:1039F0005C170D9418090D9441100D94FB160D944D
:103A0000170E0D94F92B0D94B6300D94B9300D941A
:103A10005B0A0D94E7300D9472170D94760E0D9499
:103A200069270D94060E0D94F0100D941F210D942E
:103A3000C4000D94DB200D94B0300D94DD300D9456
:103A4000D9170D94DB0F0D9475010D9422010D947F
:103A5000AB150D947C080D948C240D94B20F0D942D
:103A6000D5300D94FF2B0D94AF100D942E110D94A5
:103A700043070D94512D0D94E4160D9408220D94D6
:103A8000C130BC4244F0BF1C11241FBECFEFD1E2B5
:103A9000DEBFCDBF00E00CBF16E0A0E0B2E0EEEE6E
:103AA000F8E702E00BBF02C007900D92AA37B107FA
:103AB000D9F713E1AAE7B6E001C01D92A33AB10716
:103AC000E1F71AE3C8E8DAE304C02297FE010F9495
:103AD0004036C238D107C9F70F94EB2B0D94753CD3
:103AE0000C940000283008F027E03327DA01990F02
:103AF000311D87FD916000966105710539F43260D2
:103B00002E5F3D9330E32A95E1F708959F3F30F013
:103B100080387105610509F03C5F3C5F3D93913051
:103B200008F08068911DDF93CF931F930F93FF924E
:103B3000EF92192F987F9695E92F96959695E90F14
:103B4000FF27E153F94C99273327EE24FF24A701DF
:103B5000E70105900894079428F4360FE71EF81E35
:103B6000491F511D660F771F881F991F0694A1F7E3
:103B70000590079428F4E70EF81E491F561FC11D33
:103B8000770F881F991F661F0694A1F70590079469
:103B900028F4F80E491F561FC71FD11D880F991F03
:103BA000661F771F0694A1F70590079420F4490F2C
:103BB000561FC71FD81F990F661F771F881F0694AF
:103BC000A9F784911095177041F0D695C795579530
:103BD0004795F794E7941A95C1F7E5E7F6E36894FB
:103BE0001590159135916591959105907FE27395AA
:103BF000E118F10A430B560BC90BD009C0F7E10CD1
:103C0000F11E431F561FC91FD01D7EF4703311F4DF
:103C10008A95E6CFE894015030F0080F0AF40027A7
:103C2000021708F4202F2395022F7A3328F079E326
:103C30007D932A95E9F710C07D932A9589F606941D
:103C400097956795379517951794E118F10A430BE7
:103C5000560BC90BD00998F023957E9173957A3352
:103C600008F070E37C932013B8F77E9170617D9328
:103C700030F0839571E37D9370E32A95E1F7112489
:103C8000EF90FF900F911F91CF91DF91992787FDC2
:103C900090950895FA01AA27283051F1203181F139
:103CA000E8946F936E7F6E5F7F4F8F4F9F4FAF4F44
:103CB000B1E03ED0B4E03CD0670F781F891F9A1F57
:103CC000A11D680F791F8A1F911DA11D6A0F711D0B
:103CD000811D911DA11D20D009F468943F912AE017
:103CE000269F11243019305D3193DEF6CF010895FF
:103CF000462F4770405D4193B3E00FD0C9F7F6CF30
:103D0000462F4F70405D4A3318F0495D31FD4052F7
:103D1000419302D0A9F7EACFB4E0A695979587958D
:103D200077956795BA95C9F700976105710508956C
:103D30009B01AC010A2E0694579547953795279518
:103D4000BA95C9F7620F731F841F951FA01D0895B0
:103D5000A0E3B0E0EEEAFEE10D940736A8E04E01E4
:103D60000894811C911CF401BA2F1192BA95E9F7BD
:103D700029833A834B835C836D837E838F8398870B
:103D8000CE010996FC011192AA95E9F7A986BA8697
:103D9000CB86DC86ED86FE860F87188B29813A81DB
:103DA0004B815C812DA73EA74FA758AB79018A01B3
:103DB0008FEF9FEFA0E0B0E0E822F9220A231B2357
:103DC0001A014424552429853A854B855C8529A709
:103DD0003AA74BA75CA759016A01A822B922CA22B7
:103DE000DB223A0188249924C601B501A801970174
:103DF0000F9478356DA37EA38FA398A7C401B30158
:103E00000F94783569A37AA38BA39CA3C601B5014F
:103E1000A20191010F9478357B018C01C401B3019B
:103E20000F9478355B016C0189A19AA1ABA1BCA16B
:103E30008E0D9F1DA01FB11F89A39AA3ABA3BCA386
:103E40002DA13EA14FA158A5CA01AA27BB2729A190
:103E50003AA14BA15CA1280F391F4A1F5B1F29A360
:103E60003AA34BA35CA32E153F054007510740F42E
:103E700080E090E0A1E0B0E0A80EB91ECA1EDB1EF3
:103E800089A19AA1ABA1BCA19D01442755272A0D68
:103E90003B1D4C1D5D1D2D8F3E8F4F8F58A36C0118
:103EA000BB24AA248DA19EA1AFA1B8A5A070B0701B
:103EB000A80EB91ECA1EDB1EA98EBA8ECB8EDC8E52
:103EC0009A8C8B8C7C8C9E8D6F8D78A1FE01719667
:103ED00088E0DF011D928A95E9F72D8B9E8B6F8B11
:103EE000788F2D853E854F8558896DA57EA58FA538
:103EF00098A90F9478357B018C012D813E814F81EB
:103F0000588569A57AA58BA59CA50F947835E60EF2
:103F1000F71E081F191F6D897E898F89988D6E0D78
:103F20007F1D801F911F6D8B7E8B8F8B988FEE89ED
:103F30002A2D392D482D572D7E2F8F89988DE0966B
:103F4000E2E10D942336EF92FF920F93DF93CF932C
:103F5000CDB7DEB760970FB6F894DEBF0FBECDBF0A
:103F6000A82F002309F461C07E010894E11CF11C14
:103F700088E0F70111928A95E9F729833A834B8308
:103F80005C836D837E83AF83988780E2801BE82FFC
:103F9000FF27E7FDF09549815A816B817C811816D6
:103FA00084F019861A861B861C86882799278E1B03
:103FB0009F0B04C0440F551F661F771F8A95D2F7C9
:103FC00028C0202F332727FD3095DB01CA01022EA0
:103FD00004C0880F991FAA1FBB1F0A94D2F78987B4
:103FE0009A87AB87BC8704C07695679557954795A8
:103FF000EA95D2F78D819E81AF81B88504C0880F84
:10400000991FAA1FBB1F2A95D2F7482B592B6A2B41
:104010007B2B4D875E876F87788B29853A854B850B
:104020005C856D857E85AF8598898A2F60960FB6F1
:10403000F894DEBF0FBECDBFCF91DF910F91FF90FF
:10404000EF9008950895009719F00197B1F405C015
:10405000E0913D12F0913E1204C0E0913F12F091C8
:104060004012A081B1811C962D913C911D97CF01EA
:10407000F90119959C0197FF02C020E030E0C901C9
:1040800008951F920F920FB60F920BB60F92112444
:104090002F933F934F938F939F93EF93FF93409171
:1040A000C6002091FC113091FD112F5F3F4F809190
:1040B000001290910112282339238091FE119091D2
:1040C000FF112817390779F08091FC119091FD11AB
:1040D000E0910212F0910312E80FF91F4083309330
:1040E000FD112093FC11FF91EF919F918F914F91C2
:1040F0003F912F910F900BBE0F900FBE0F901F900E
:1041000018951F920F920FB60F920BB60F921124B3
:104110002F933F938F939F93EF93FF9320911E12C2
:1041200030911F1280911C1290911D12281739078F
:10413000E9F080911E1290911F12E0912212F091ED
:104140002312E80FF91F80818093C60080911E1210
:1041500090911F12019620912012309121128223FA
:10416000932390931F1280931E1210C020911C1253
:1041700030911D1280911E1290911F12281739073D
:1041800029F48091C1008F7D8093C100FF91EF9150
:104190009F918F913F912F910F900BBE0F900FBE6B
:1041A0000F901F9018951F920F920FB60F920BB69B
:1041B0000F9211242F933F934F938F939F93EF93DD
:1041C000FF934091CE0020910412309105122F5F91
:1041D0003F4F809108129091091228233923809132
:1041E0000612909107122817390779F0809104126E
:1041F00090910512E0910A12F0910B12E80FF91F4D
:1042000040833093051220930412FF91EF919F9108
:104210008F914F913F912F910F900BBE0F900FBE3A
:104220000F901F9018951F920F920FB60F920BB61A
:104230000F9211242F933F938F939F93EF93FF93AC
:1042400020912612309127128091241290912512EC
:1042500028173907E9F08091261290912712E091F2
:104260002A12F0912B12E80FF91F80818093CE0063
:104270008091261290912712019620912812309158
:10428000291282239323909327128093261210C021
:10429000209124123091251280912612909127129C
:1042A0002817390729F48091C9008F7D8093C900B0
:1042B000FF91EF919F918F913F912F910F900BBEA6
:1042C0000F900FBE0F901F9018951F920F920FB670
:1042D0000F920BB60F9211242F933F934F938F930E
:1042E0009F93EF93FF9340913601209114123091E8
:1042F00015122F5F3F4F80911812909119122823A9
:10430000392380911612909117122817390779F0E6
:104310008091141290911512E0911A12F0911B12D3
:10432000E80FF91F40833093151220931412FF9168
:10433000EF919F918F914F913F912F910F900BBED5
:104340000F900FBE0F901F9018951F920F920FB6EF
:104350000F920BB60F9211242F933F938F939F933D
:10436000EF93FF93209136123091371280913412DF
:104370009091351228173907E9F080913612909103
:104380003712E0913A12F0913B12E80FF91F808149
:1043900080933601809136129091371201962091C8
:1043A00038123091391282239323909337128093DD
:1043B000361210C02091341230913512809136128D
:1043C000909137122817390729F4809131018F7D98
:1043D00080933101FF91EF919F918F913F912F91A8
:1043E0000F900BBE0F900FBE0F901F9018950F935C
:1043F0001F93CF93DF9360911A0B6623B1F1C091A5
:10440000CC0BD091CD0B0091570310915803772717
:1044100067FD7095872F972F0F94E2322091470305
:10442000309148034091490350914A030F94BF349F
:1044300020E030E040E251E40F94BF340F94AF32FB
:104440009801261B370BC217D3073CF09B01200FA6
:10445000311FC217D3070CF49E013093CD0B20936C
:10446000CC0B3093580320935703DF91CF911F91CA
:104470000F9108958091620A8823D9F08091610A92
:104480008823B9F06091590A70915A0A80915B0AA9
:1044900090915C0A20E030E040E050E00F94403220
:1044A000882339F090E08091040B882319F491E07F
:1044B00001C090E0892F0895FC017283618381E03F
:1044C0008083DF01A85BBF4F86E06A37780739F445
:1044D00070933E1260933D121D921C9208C070931F
:1044E000401260933F1281E090E08D939C9317AA55
:1044F00016AA0895A0E0B0E0E0E8F2E20D941136CB
:10450000EC016B01FB01EE0FFF1FEC0FFD1FE859E3
:10451000FF4F608170E080E090E00F94E0327B011B
:104520008C01CB5ADF4F8881C555D040882321F4B8
:104530008EA99FA9892B51F0C801B70120E030E076
:1045400040E85EE30F94BF347B018C01C801B701E2
:1045500020E030E040E050E00F94403218160CF0BC
:1045600044C0FE01EC0DFD1DE658FF4F80818823FD
:10457000D1F5C801B70120E030E048E452E40F94DF
:104580006F34181654F40F2EF0E0EF2EF0E0FF2EEB
:10459000F8E40F2FF2E41F2FF02DCC0EDD1E8AE77A
:1045A00090E0C80ED91E60E070E088E492E4A801B3
:1045B00097010F9447327B018C01CD57DF4F688103
:1045C00070E0882777FD8095982F0F94E2329B0149
:1045D000AC01C801B7010F9463310F94B432F601F6
:1045E000608381E003C08150808380E0CDB7DEB777
:1045F000E8E00D942D362091FF0F3091001040918E
:1046000001105091021080910B0890910C08A0911C
:104610000D08B0910E08281B390B4A0B5B0B213596
:1046200086E4380780E0480780E058072CF0205ADD
:104630003C48404050400CC0203B89EB38078FEF8E
:1046400048078FEF580724F4205633474F4F5F4FEA
:104650002093CA103093CB104093CC105093CD10C0
:1046600008952091800B3091810B80918C0B90915B
:104670008D0B281B390B253631051CF08AE0809301
:10468000820F2C593F4F1CF486EF8093820F80914C
:10469000820F18161CF481508093820F8091820F34
:1046A00087FF03C08F5F8093820F8091820F8130DC
:1046B00019F08F3F09F080E00895A0E0B0E0E3E654
:1046C000F3E20D940F36EC015A016B018E818823C1
:1046D00051F4CB01BA010F94E2326F837887898756
:1046E0009A8781E08E83EA80FB800C811D81C60160
:1046F000B5010F94E2329B01AC01C801B7010F94E0
:10470000BF345B016C0160E070E080E89FE3A801CA
:1047100097010F9462312F81388549855A850F940E
:10472000BF349B01AC01C601B5010F9463316F83A7
:10473000788789879A870F94AF329B01AC01CA01B1
:10474000CDB7DEB7EAE00D942B36FC011682089552
:104750000F931F938C01CB01BA010F94E232F80141
:10476000678370878187928781E086831F910F918D
:104770000895A0E0B0E0EFEBF3E20D941036EC0109
:104780008A89E82FF0E0EE0FFF1FEE0FFF1FEC0FFE
:10479000FD1F42835383648375838F5F8A8B8430CC
:1047A00008F01A8A8B898F5F8B8B8150843010F0D0
:1047B00084E08B8B6E01BB240F2EF0E0EF2EF0E037
:1047C000FF2EF0E00F2FF0E01F2FF02DF601628199
:1047D0007381848195810F94E2329B01AC01C80101
:1047E000B7010F9463317B018C01B39484E090E0B6
:1047F000C80ED91E94E0B91649F76B8970E0882776
:1048000077FD8095982F0F94E2329B01AC01C8018F
:10481000B7010F9447320F94AF329B01AC01CA012C
:10482000CDB7DEB7E9E00D942C36FC01128213827D
:1048300014821582168217821086118612861386BC
:104840001486158616861786108A118A128A138A8C
:10485000089584E00895FF920F931F93CF93DF9301
:10486000EC01142F052FF62E2E8DE22FF0E0EE0F27
:10487000FF1FEE0FFF1FE80FF91F812F902FAF2DA5
:10488000B72F82839383A483B5832F5F2E8F273026
:1048900008F01E8E212F302F4F2D572FB901CA013E
:1048A000CDB7DEB7E5E00D94303687E00895E82F08
:1048B000F0E0ED30F10560F5EE58FF4F0D943E3617
:1048C0008AE796E065E076E127C08AE796E06EEF3A
:1048D00075E122C08AE796E064EF75E11DC08AE7C2
:1048E00096E06EEE75E118C08AE796E068EE75E135
:1048F00013C08AE796E063EE75E10EC08AE796E0A2
:104900006FED75E109C08AE796E068ED75E104C0D6
:104910008AE796E064ED75E10D94F116EF92FF924F
:104920000F931F937A018B018331C9F1843174F4A1
:104930008230C9F0833024F4813009F051C01AC0AC
:104940008430F9F0893009F04BC022C0893399F1E5
:104950008A3324F4863209F043C027C08F3689F1A8
:104960008337F1F536C090E6E92E99E0F92E012D56
:10497000112D3CC080EBE82E84E0F82E012D112D86
:1049800035C0B0ECEB2EB2E1FB2E012D112D2EC067
:10499000A0E8EA2EA5E2FA2E012D112D27C0E12C68
:1049A000FBE4FF2E012D112D21C0E12CE6E9FE2EA6
:1049B000012D112D1BC0E12C71EEF72E012D112DB3
:1049C00015C06CEFE62E61EBF62E61E0062F112D7F
:1049D0000DC0E12C52ECF52E51E0052F112D06C033
:1049E0008AE796E069ED75E20F94F116B701C80108
:1049F0001F910F91FF90EF9008952AE736E08823EA
:104A000049F000D00F92EDB7FEB7328321838DE1DC
:104A100092E108C000D00F92EDB7FEB73283218338
:104A200089E192E1948383830F94CB168AE796E021
:104A3000EDB7FEB79283818382E192E19483838311
:104A40000F94CB160F900F900F900F90089500D0F9
:104A50000F928AE796E0EDB7FEB7928381838EE7E7
:104A600092E1948383830F94CB160F900F900F9055
:104A70000F90089500D00F928AE796E0EDB7FEB749
:104A80009283818384EB96E1948383830F94CB1686
:104A90000F900F900F900F9080E008950F931F9349
:104AA0008DB79EB70A970FB6F8949EBF0FBE8DBF05
:104AB000EDB7FEB731960AE716E0ADB7BEB712966E
:104AC0001C930E93119784E299E1938382838091E2
:104AD0008A0B90918B0B9583848380918C0B9091A2
:104AE0008D0B9783868380918E0B90918F0B91878E
:104AF00080870F94CB16EDB7FEB73196ADB7BEB732
:104B000012961C930E93119781E199E1938382830E
:104B10008091AC0B9091AD0B958384838091AE0B0B
:104B20009091AF0B978386838091B00B9091B10BDE
:104B3000918780870F94CB16EDB7FEB73196ADB74E
:104B4000BEB712961C930E9311978EEF98E1938344
:104B500082838091CE0B9091CF0B9583848380913B
:104B6000D00B9091D10B978386838091D20B90913B
:104B7000D30B918780870F94CB16EDB7FEB7319694
:104B8000ADB7BEB712961C930E9311978BEE98E1BA
:104B9000938382838091F00B9091F10B95838483B2
:104BA0008091F20B9091F30B978386838091F40BA5
:104BB0009091F50B918780870F94CB16EDB7FEB7D8
:104BC0003196ADB7BEB712961C930E93119788ED30
:104BD00098E1938382838091120C9091130C9583BA
:104BE00084838091140C9091150C97838683809117
:104BF000160C9091170C918780870F94CB16EDB708
:104C0000FEB73196ADB7BEB712961C930E931197AF
:104C100085EC98E1938382838091350C9091360CDA
:104C2000958384838091370C9091380C9783868389
:104C30008091390C90913A0C918780870F94CB1614
:104C4000EDB7FEB73196ADB7BEB712961C930E9373
:104C5000119782EB98E1938382838091580C909115
:104C6000590C9583848380915A0C90915B0C9783A7
:104C7000868380915C0C90915D0C918780870F9466
:104C8000CB16EDB7FEB73196ADB7BEB712961C93F3
:104C90000E9311978FE998E19383828380917B0C27
:104CA00090917C0C9583848380917D0C90917E0CF7
:104CB0009783868380917F0C9091800C9187808769
:104CC0000F94CB168DB79EB70A960FB6F8949EBF79
:104CD0000FBE8DBF1F910F910895CF93DF939C015D
:104CE0008DB79EB744970FB6F8949EBF0FBE8DBF89
:104CF000EDB7FEB731968AE796E0ADB7BEB712962C
:104D00009C938E93119785E09AE193838283E901C6
:104D100088819981AA81BB8184839583A683B78387
:104D20008C819D81AE81BF8180879187A287B38767
:104D300088859985AA85BB8584879587A687B78747
:104D40008C859D85AA2797FDA095BA2F808B918B86
:104D5000A28BB38B0F94CB168DB79EB744960FB62C
:104D6000F8949EBF0FBE8DBFDF91CF9108951F9322
:104D7000162F00D000D0EDB7FEB731962AE736E007
:104D8000ADB7BEB712963C932E93119723EB3AE141
:104D900033832283848315820F94CB168DB79EB7FD
:104DA00006960FB6F8949EBF0FBE8DBF812F7FDD94
:104DB0001F9108958DB79EB740970FB6F8949EBF88
:104DC0000FBE8DBFEDB7FEB731968AE796E0ADB75F
:104DD000BEB712969C938E93119781EC9AE19383C0
:104DE00082838091BD079091BE07A091BF07B091CB
:104DF000C00784839583A683B7838091C107909170
:104E0000C207A091C307B091C40780879187A2878A
:104E1000B3878091C5079091C607A091C707B0914D
:104E2000C80784879587A687B7870F94CB168DB759
:104E30009EB740960FB6F8949EBF0FBE8DBF0895E3
:104E40008DB79EB740970FB6F8949EBF0FBE8DBF2B
:104E5000EDB7FEB731968AE796E0ADB7BEB71296CA
:104E60009C938E93119784EE9AE193838283809131
:104E7000C9079091CA07A091CB07B091CC07848352
:104E80009583A683B7838091CD079091CE07A0919B
:104E9000CF07B091D00780879187A287B387809191
:104EA000D1079091D207A091D307B091D4078487FE
:104EB0009587A687B7870F94CB168DB79EB7409678
:104EC0000FB6F8949EBF0FBE8DBF089500D00F920D
:104ED0008AE796E0EDB7FEB79283818388E09CE194
:104EE000948383830F94CB160F900F900F900F90A5
:104EF0000895CF93DF93CAE7D6E0CE0160E771E172
:104F00000F94F11684EE96E00F94A80F882331F4E5
:104F1000CE0165E571E10F94F11683C084EE96E051
:104F20000F942E112DB73EB7285030400FB6F8948D
:104F30003EBF0FBE2DBFEDB7FEB73196ADB7BEB7C2
:104F40001296DC93CE9311978EE291E19383828344
:104F50008091F506848315828091F6069091F7067C
:104F6000978386830F94CB16EDB7FEB73196ADB716
:104F7000BEB71296DC93CE93119782E191E19383B1
:104F800082838091FA069091FB0601969583848333
:104F90008091F8069091F906978386830F94CB163B
:104FA0002DB73EB7285F3F4F0FB6F8943EBF0FBEF8
:104FB0002DBF6091FA067091FB066F5F7F4F84EE04
:104FC00096E00F94E01284EE96E00F94F013ADB7E4
:104FD000BEB71C970FB6F894BEBF0FBEADBFEDB7FE
:104FE000FEB731961296DC93CE9311972FED30E1F8
:104FF00033832283648375838683978381E190E280
:10500000A2E1B8E280879187A287B3870F94CB167D
:105010002DB73EB7245F3F4F0FB6F8943EBF0FBE8B
:105020002DBF80E0DF91CF9108950F931F93CF9311
:10503000DF938AEB97E060E070E041E85CE128EF05
:105040003EE201E419E00E94BFEF85EF97E060E0E7
:105050000E94FDA6FCDC68EE73E080E090E00F9417
:10506000E02FCAE6D3E10AE716E064E170E080E0F1
:1050700090E00F94E02F0F94AC2F20911C0F3091F3
:105080001D0F40911E0F50911F0F621B730B840B5D
:10509000950B643171058105910508F4BCC00F942E
:1050A000AC2F20911C0F621B6093200F70E080E0FA
:1050B00090E00F94E03220E030E04AE754E40F94AF
:1050C000473260934703709348038093490390935A
:1050D0004A030F94AC2F60931C0F70931D0F8093A5
:1050E0001E0F90931F0F85EF97E00E94F6B48091FA
:1050F000590B882369F08091210F8F5F8093210FD6
:10510000853031F48AE19EE00E941FCA1092210F7F
:105110008DB79EB782970FB6F8949EBF0FBE8DBF16
:10512000EDB7FEB73196ADB7BEB712961C930E938E
:105130001197D383C283809103089091040864E699
:1051400070E00F94B7357583648380910708909160
:10515000080864E670E00F94B73577836683809122
:105160000B0890910C0864E670E00F94A3357187EA
:1051700060878091E1079091E207A091E307B091E9
:10518000E40782879387A487B5878091E50790918C
:10519000E607A091E707B091E80786879787A08B7D
:1051A000B18B8091E9079091EA07A091EB07B0914C
:1051B000EC07828B938BA48BB58B8091D507909154
:1051C000D607A091D707B091D807868B978BA08F71
:1051D000B18F8091D9079091DA07A091DB07B09148
:1051E000DC07828F938FA48FB58F8091DD0790911C
:1051F000DE07A091DF07B091E007868F978FA0A30D
:10520000B1A30F94CB168DB79EB782960FB6F894C4
:105210009EBF0FBE8DBF8AE796E00F945C171816ED
:1052200019060CF022CF80E0DF91CF911F910F91F2
:105230000895EF92FF920F931F93CF93DF932CE784
:10524000E22E22E1F22EC0E0D0E00AE716E000D024
:105250000F92EDB7FEB712830183F482E3820F94BD
:10526000CB1621960F900F900F900F90C832D1055A
:1052700071F7C8010F941D2CCDB7DEB7E6E00D9491
:105280002F36CF93DF93EC0105C021978AE796E094
:105290000F941D2C1C161D06C4F3DF91CF910895A9
:1052A000EF92FF920F931F93CF93DF9300D00F9253
:1052B000CAE7D6E0ADB7BEB71296DC93CE9311978E
:1052C00082E792E114969C938E9313970F94CB16DA
:1052D0000F900F900F900F9080911C0E90911D0ECB
:1052E0008230910551F08330910519F0019769F4EE
:1052F00008C0CE0169E672E10BC0CE0161E672E141
:1053000007C0CE016DE572E103C0CE016AE572E12E
:105310000F94F1168EDF90E08091590B811191E08E
:10532000892F6BDB8AE19EE00E94F4CECDB7DEB719
:1053300028970FB6F894DEBF0FBECDBF0DB71EB7CE
:105340000F5F1F4F3AE7E32E36E0F32EFA82E98231
:1053500022E432E1F8013383228321EE3EE245E686
:1053600052E40F94BF34D80114966D937D938D93BE
:105370009C9317970F94CB16CDB7DEB728960FB630
:10538000F894DEBF0FBECDBF8AE19EE00E94EFCE53
:105390009C01EDB7FEB770970FB6F894FEBF0FBE35
:1053A000EDBF3196ADB7BEB71296FC92EE92119753
:1053B00080E292E193838283E90188819981AA81C5
:1053C000BB8184839583A683B7838C819D81AE81C5
:1053D000BF8180879187A287B38788859985AA85B1
:1053E000BB8584879587A687B7870F94CB16EDB7C3
:1053F000FEB770960FB6F894FEBF0FBEEDBF82E009
:1054000090E03FDFCDB7DEB7E6E00D942F36A8E29F
:10541000B0E0EDE0FAE20D9407368091590B882355
:10542000C9F400D00F928AE796E0ADB7BEB71296E6
:105430009C938E93119788E092E114969C938E939F
:1054400013970F94CB160F900F900F900F9080E052
:10545000D4DA52C10AE11EE0C80168E070E00E949F
:105460007EC9C8010E942ECC882339F48AE796E0D1
:1054700069EE71E10F94F1163FC110932208009379
:1054800021080EDF8AEB97E060E070E041E85CE124
:1054900028EF3EE201E419E00E94BFEF85EF97E0BC
:1054A00060E00E94FDA6D3DA80E090E0A0E0B0E0EA
:1054B0008DA39EA3AFA3B8A700E010E01E0108943F
:1054C000211C311C64E170E080E090E00F94E02F3B
:1054D0000F94AC2F20911C0F30911D0F40911E0F87
:1054E00050911F0F621B730B840B950B6431710578
:1054F0008105910508F4EEC00F94AC2F20911C0F8C
:10550000621B6093200F70E080E090E00F94E03227
:1055100020E030E04AE754E40F94473260934703B9
:10552000709348038093490390934A030F94AC2FE0
:1055300060931C0F70931D0F80931E0F90931F0F8D
:1055400085EF97E00E94F6B48091210F8F5F8093E2
:10555000210F8530E9F48AE19EE00E941FCA88236A
:10556000A9F0D101EDE3F8E084E201900D928150C1
:10557000E1F78AE19EE0B1010E949DD16DA37EA377
:105580008FA398A78AE19EE00E94FCCE1092210F83
:105590000F5F1F4F053111050CF49CC08091280E40
:1055A000882309F48FC08AE19EE00E94EFCEFC01BF
:1055B000408451846284738484809580A680B780FF
:1055C000C080D180E280F3806DA17EA18FA198A5DB
:1055D00021EE3EE245E652E40F94BF3420E030E095
:1055E00048EC52E40F94BF340F94AF32613AACE808
:1055F0007A07A0E08A07A0E09A072CF0605A7C485E
:105600008040904006C097FF04C0605673478F4F9C
:105610009F4FEDB7FEB77A970FB6F894FEBF0FBE57
:10562000EDBF0DB71EB70F5F1F4F2AE736E032837D
:105630002183EDEAF1E1D8011396FC93EE931297E2
:1056400024E630E040E050E00F94EC35D8011496A9
:105650002D933D934D935C93179780911E0E9091DF
:105660001F0E19969C938E9318978091200E9091FF
:10567000210E1B969C938E931A978091220E9091E7
:10568000230E1D969C938E931C97F801C686D78691
:10569000E08AF18A52968D929D92AD92BC92559776
:1056A000468A578A608E718E0F94CB1600E010E008
:1056B0002DB73EB7265E3F4F0FB6F8943EBF0FBEE4
:1056C0002DBF08C08AE796E069E971E10F94F116F1
:1056D00000E010E08AE796E00F945C1718161906B0
:1056E0000CF0F0CE8AE796E06AE871E10F94F116CB
:1056F0008AE19EE00E94E1D380E0A896E2E10D9469
:10570000233600D00F928AE796E0EDB7FEB792837A
:10571000818388E998E1948383830F94CB160F905B
:105720000F900F900F9085DDB9D982E090E0A9CD60
:10573000CF93DF9300D00F92CAE7D6E0EDB7FEB764
:10574000D283C18383E899E1948383830F94CB163A
:105750000F900F900F900F906CDD80915A0B882363
:1057600081F400D00F92EDB7FEB7D283C1838AE6F1
:1057700099E1948383830F94CB160F900F900F9031
:105780000F9080915A0B833091F400D00F928AE7EA
:1057900096E0EDB7FEB79283818384E599E1948327
:1057A00083830F94CB160F900F900F900F908091E2
:1057B0005A0B843091F400D00F928AE796E0EDB74F
:1057C000FEB79283818387E399E1948383830F9467
:1057D000CB160F900F900F900F9082E090E051DD6C
:1057E000DF91CF910895EF92FF920F931F9300D016
:1057F0000F920AE716E0EDB7FEB7128301838EEF32
:1058000099E1948383830F94CB160F900F900F90A0
:105810000F900FDD00D00F92EDB7FEB7128301831A
:1058200081EF99E1948383830F94CB160F900F90AF
:105830000F900F9044E9E42E4CE0F42EC7014DDAAE
:1058400000D00F92EDB7FEB71283018383EE99E18A
:10585000948383830F94CB160F900F900F900F902B
:10586000C7014E963ADA00D00F92EDB7FEB7128319
:10587000018384ED99E1948383830F94CB160F9079
:105880000F900F900F90C701CC9627DA00D00F929F
:10589000EDB7FEB71283018389EC99E1948383838A
:1058A0000F94CB160F900F900F900F908EEE9CE000
:1058B00014DA00D00F92EDB7FEB71283018384EBA8
:1058C00099E1948383830F94CB160F900F900F90E0
:1058D0000F908CE09DE001DA00D00F92EDB7FEB79B
:1058E0001283018381EA99E1948383830F94CB1619
:1058F0000F900F900F900F908AE29DE0EED900D0AC
:105900000F92EDB7FEB71283018381E999E1948389
:1059100083830F94CB160F900F900F900F9088E415
:105920009DE0DBD982E090E0ACDC1F910F91FF900D
:10593000EF9008950F931F9300D00F920AE716E09F
:10594000ADB7BEB712961C930E9311978BE49AE1F4
:1059500014969C938E9313970F94CB160F900F90E1
:105960000F900F9066DCEDB7FEB73A970FB6F8943C
:10597000FEBF0FBEEDBF3196ADB7BEB712961C93FA
:105980000E9311978BE29AE1938382838091F70AB9
:105990009091F80AA091F90AB091FA0A848395834C
:1059A000A683B7838091FB0A9091FC0A9187808738
:1059B0000F94CB16EDB7FEB73A960FB6F894FEBF2C
:1059C0000FBEEDBF82E090E05CDC1F910F91089567
:1059D0000F931F9300D00F920AE716E0ADB7BEB742
:1059E00012961C930E9311978BE99AE114969C934F
:1059F0008E9313970F94CB160F900F900F900F90DC
:105A000018DCEDB7FEB73E970FB6F894FEBF0FBE99
:105A1000EDBF3196ADB7BEB712961C930E9311979A
:105A200087E59AE1938382838091180B992787FDFC
:105A30009095958384838091190B992787FD909584
:105A40009783868380911F0B992787FD9095918777
:105A5000808780911C0B992787FD9095938782877B
:105A600080911D0B90911E0B958784870F94CB1608
:105A7000EDB7FEB73E960FB6F894FEBF0FBEEDBF72
:105A800082E090E0FEDB1F910F910895CF93DF93AA
:105A900000D00F928AE796E0EDB7FEB7928381833C
:105AA00085EA9AE1948383830F94CB160F900F902D
:105AB0000F900F90BEDBC0E0D0E0FE01EB5DF44F35
:105AC0008C2F608154D92196C630D105B1F782E080
:105AD00090E0D7DBDF91CF91089500D00F928AE755
